:020000040800F2
:10000000D00E00207D020008795C00089559000898
:1000100000000000000000000000000000000000E0
:1000200000000000000000000000000077610008F0
:1000300000000000000000007D5C0008C9610008AD
:100040008F0200088F0200088F0200088F0200084C
:100050008F0200088F0200088F0200088F0200083C
:100060008F020008992200088F0200088F02000802
:10007000292000088F0200088F0200088F02000864
:100080008F0200087D6200088D62000800000000F9
:100090008F0200088F0200088F0200088F020008FC
:1000A0008F0200088F0200088F0200088F020008EC
:1000B000916E00088F0200088F0200088F0200086E
:1000C00000F002F800F0CBF812A030C8083824186D
:1000D0002D18AC4201D100F0C2F80FCCA246AB46BD
:1000E0000CA730CF2D1B083F3F197C427F1E544484
:1000F0002D090426F441641EAC4201D300F0AFF890
:100100000126334200D0FB1A3343984754465D46DC
:10011000DFE700009C840000BC840000103A02D39A
:1001200078C878C1FAD8520701D330C830C101D598
:1001300004680C6070470000704700000023002432
:1001400000250026103A01D378C1FBD8520700D30E
:1001500030C100D50B60704710B56E2902D100F098
:1001600019FC10BD702902D100F05BFD10BD66299D
:1001700002D108F04BF810BD652902D108F046F80D
:1001800010BD672902D108F041F810BD612902D1E4
:1001900008F044F810BD03681B0A01D380231943FB
:1001A000692902D100F0C0FB10BD642902D100F022
:1001B000BBFB10BD752902D100F0B6FB10BD6F2945
:1001C00002D100F0D9FC10BD782902D100F016FD53
:1001D00010BDE92902D100F075FC10BDE42902D15F
:1001E00000F070FC10BDF52902D100F06BFC10BDD1
:1001F000EF2902D100F0CCFC10BDF82902D100F0AB
:100200000BFD10BD0368DB0901D38023194363296B
:1002100002D101F03AFA10BD732902D101F03DFA82
:1002200010BDE32902D101F047FA10BDF32902D134
:1002300001F04AFA10BD002010BD1FB501F0DCFA34
:1002400004000020002107F09BFE401C606000209D
:10025000002107F07FFEE0601FBD10B510BD01F06A
:10026000A3FA1146FFF7E9FF06F0A4FF01F038FEFC
:1002700003B4FFF7F2FF03BC01F0CEFE074880474E
:1002800007480047FEE7FEE7FEE7FEE7FEE7FEE77A
:1002900004480549054A064B70470000796200088A
:1002A000C1000008D0080020D00E0020D00A002095
:1002B000D00A0020FEB5044610460D46184373D000
:1002C000A6468C460020A41A01469D4167D3664687
:1002D000002701243D46B61A9D4102D313463A46F3
:1002E0002124654676462F04360C3E432D0CB61A63
:1002F0009D4104D3150C1B042B4312041034654696
:1003000076462F06360A3E432D0AB61A9D4104D37F
:10031000150E1B022B4312020834654676462F0742
:1003200036093E432D09B61A9D4104D3150F1B0112
:100330002B431201241D65467646AF07B6083E439F
:10034000AD08B61A9D4104D3950F9B002B43920034
:10035000A41C65467646EF0776083E436D08B61A3C
:100360009D411AD392185B41641C16E00018764632
:1003700065464941B71A9D410191009009D36046F5
:10038000B11A98418E468446009801990025401C78
:100390006941DD0752082A435B08641EE6D57246B0
:1003A000634603B0F0BDFFE72046284307D0002096
:1003B000C0430146C046C04622462B46F1E7002016
:1003C0000146F7E70FB41CB5084B06AA7B44694603
:1003D0000090059800F0F7FA04460020694600F006
:1003E00005FB20461CBC08BC04B018471D060000D5
:1003F0000FB41CB50C0007AA009007D04142A142DF
:1004000002D30019401E01E00020C043074B7B448B
:1004100069460190069800F0D6FA0021002C01D020
:10042000009A11701CBC08BC04B01847E505000018
:1004300030B5441C03E00178401C00290DD0810731
:10044000F9D10B4BDD0104C8D11A91432940FAD0F0
:10045000001B0A0603D0C01E30BD001B30BD0A04BD
:1004600001D0801E30BD0902FCD0401E30BD00000E
:1004700001010101D2B210B513029A1813049A189F
:1004800000F00EF810BD01E004C0091F0429FBD2E2
:100490008B0701D50280801CC90700D0027070470D
:1004A00000290BD0C30702D00270401C491E02294C
:1004B00004D3830702D50280801C891EE3E7002253
:1004C000EEE70022DFE70000002203098B422CD375
:1004D000030A8B4211D300239C464EE003460B4394
:1004E0003CD4002243088B4231D303098B421CD3F6
:1004F000030A8B4201D394463FE0C3098B4201D3E8
:10050000CB01C01A524183098B4201D38B01C01A1F
:10051000524143098B4201D34B01C01A5241030996
:100520008B4201D30B01C01A5241C3088B4201D345
:10053000CB00C01A524183088B4201D38B00C01AF2
:10054000524143088B4201D34B00C01A5241411A19
:1005500000D201465241104670475DE0CA0F00D0FC
:100560004942031000D3404253409C4600220309F5
:100570008B422DD3030A8B4212D38901FC2212BA7B
:10058000030A8B420CD3890192118B4208D3890153
:1005900092118B4204D389013AD0921100E089096B
:1005A000C3098B4201D3CB01C01A524183098B424C
:1005B00001D38B01C01A524143098B4201D34B0135
:1005C000C01A524103098B4201D30B01C01A524198
:1005D000C3088B4201D3CB00C01A524183088B421F
:1005E00001D38B00C01A5241D9D243088B4201D3A8
:1005F0004B00C01A5241411A00D2014652411046E6
:1006000063465B1001D34042002B00D5494270473E
:1006100063465B1000D3404201B50549002802DC67
:10062000491C084000E00846C046C04602BD00BF65
:10063000FFFFFF7F70477047704700000121C90529
:100640000123411842001B06D3185B0E0AD0C110CB
:100650000722D206891840075242D14201D55200E2
:1006600089187047090208D50146002A03D0C10F36
:10067000C9070020704710467047420202D0002090
:1006800002497047072109050143F4E70000F87F9C
:10069000F0B5FF252D04C609C209FF2704462E40E8
:1006A0000137CB093E4348402A402B400746002AE9
:1006B0006BD0002B69D0AA4267D0AB4265D000282E
:1006C00000DA32460125ED0529432C4309022002B8
:1006D000090AD21A4B0C7F24E31A434C000A7C44CB
:1006E000E35C7D242404121914145B00A2188842D0
:1006F00001D3521C00E0400049420C465C432411E7
:100700005C43DB016415E318040A5C43C502200D59
:100710000C4644436419250A5D432303EC0C0D4643
:10072000654300030019EB184C42A34201D35B1848
:10073000401CD4052018002B07D05B00C91804D337
:10074000401C002901D1400840003F2189048A4211
:1007500009D3002A08DC1106090F04D00321490738
:100760004018C00FC007F0BD0122410012068918D1
:100770007F2252069142F6D205214907C84201D58F
:100780009010F0BDFF20C005F0BD002F00DA32460A
:100790001648AA4207D2AB4205D21902090E17D059
:1007A000F80FC007F0BDFF2563002D06AB42F9D856
:1007B0004900A942F6D8AB4201D1A942F2D0A942E0
:1007C00001D1002101E061004908D0050843F0BDD6
:1007D0001102090EFBD0FF200243D005F0BD0A46EE
:1007E0000146104654E700004A7B00000000C07F2D
:1007F0001F22030C02D10F2200041CD0030E01D1D2
:100800000002083A030F01D10001121F830F01D12A
:100810008000921E002801DB4000521ED2055118B4
:10082000021251181922904004D3491C002801D10A
:100830004908490008467047C10FC90700D0404227
:10084000012292071143D3E701218907D0E710B5B0
:1008500000F000FB006810BD10B5044600F0FAFA85
:10086000046010BD70B5044685690068C10601D5F5
:10087000302600E02026C00707D070BD62683046F1
:10088000A1689047206A401C20626D1EF6D570BD9D
:1008900070B5044685690078C00707D170BD6268ED
:1008A000A16820209047206A401C20626D1EF6D56A
:1008B00070BD09684A0501D540B27047C905FCD52D
:1008C00000B2704709684A0501D5C0B27047C90532
:1008D000FCD580B2704770B50C460546012A05D09C
:1008E0002878800600D5EA69002302E0012305E0AC
:1008F0005B1C934202D2E05C0028F9D1A869E6189B
:10090000C01AA861286AC01828622846FFF7AAFF03
:1009100004E06A682078A968641C9047B442F8D360
:100920002846FFF7B5FF70BDF7B50025752910689B
:10093000009914A611D0FFF7BCFF002802DA40424C
:1009400011A608E0009909688A0701D50FA602E000
:10095000490704D50EA6012501E0FFF7B3FF009F6C
:100960000024243704E000F0D4FE30313955641CF3
:100970000028F8D12B4632462146009800F0ABFA09
:10098000FEBD0000000000002D0000002B00000054
:100990002000000011680268006A530501D5087044
:1009A00009E0D30501D5088005E0130602D5C2177A
:1009B00005C100E0086001207047000001694A1C81
:1009C00002610878704700B58FB00291002105914F
:1009D000054901937944039111460490684600F05B
:1009E0002DF90FB000BD0000E5FFFFFF0A68107091
:1009F000521C0A6070470CC908399A4202D2531C33
:100A00000B60107070470000F7B50446154686B0BD
:100A10002B487844002703C83E460090019111E01E
:100A200007986A467100415A02A800F051FE411C25
:100A300007D02178890603D5E269391891420ED88A
:100A40003F18761C2078800602D5E069B84206DDA2
:100A5000AE42E5DB07987100405A0028E0D1A0695A
:100A6000C01BA0612046FFF7FDFE154878445A38A8
:100A700003C800900020019116E041006A460798E3
:100A8000415A02A800F024FE0590401C0AD000251F
:100A900005E0626802A8A168405D90476D1C05985A
:100AA0008542F6D30498401CB0420490E5DB206AEE
:100AB000C01920622046FFF7EBFE09B0F0BD000030
:100AC00056780000F7B5D21D0025D20815A6D20031
:100AD000F52905CA11D0002A05DA002140429141CA
:100AE00011A60A4608E0009909688B0701D50FA6F0
:100AF00002E0490701D50EA601251146009F0024FA
:100B0000243704E000F0AAF930323A55641C02465A
:100B10000A43F7D12B4632462146009800F0DBF914
:100B2000FEBD0000000000002D0000002B000000B2
:100B30002000000070B504460021243408E0550769
:100B4000D2086D0F303565545D072A43DB08491C18
:100B500015461D43F3D10468002310A2250708D5CC
:100B600020252C400C4304D0C46901230CA2641E30
:100B7000C46100F0B0F970BD10B50446214610689C
:100B8000FFF7A0FE002302462046FFF7D3FF10BD6B
:100B9000D21DD108C9000CC9CCE70000000000003C
:100BA00030000000F8B50F460188090502D5224C37
:100BB0007C4402E0204C7C440E3405460021243560
:100BC00008E016071209360FA65D6E541E07324361
:100BD0001B09491C16461E43F3D122460478002304
:100BE000240705D5702F06D0002901D00223113229
:100BF00000F071F9F8BD01231032F9E770B5044631
:100C00000D4621461068FFF75DFE00230246294687
:100C10002046FFF7C7FF70BDD21DD308DB000CCB09
:100C2000C0E730B40368202412682343036008231C
:100C3000C36130BC0023B5E7C0760000F3B50446BD
:100C4000002081B020622046E1688847002872D0E9
:100C5000252802D06268A168ABE0594F00267F4486
:100C60002046E16888472028054608DB312D06D25A
:100C7000781920380078002801D00643F0E7B00743
:100C800001D5042086430020E0610746A0612A2D9B
:100C90000AD0284607F041F9002827D0B8000019EB
:100CA000303D0090856119E00298BA00121902C81F
:100CB000916102902046E1688847012F054617D1CF
:100CC000E06900281FDA202086431CE000980A21F2
:100CD0008069484300994019303888612046E168AE
:100CE0008847054607F019F90028EFD1012F0AD0EF
:100CF0002E2D08D12046E16888470546202006436E
:100D00007F1C022FC3DBA069002803DA4042A061E8
:100D100001200643F00701D0102086436C2D0BD034
:100D2000682D09D04C2D3CD06A2D38D0742D38D088
:100D30007A2D36D016E040E0E1682F4620468847FD
:100D4000B842054609D16C2F29D001208002E16804
:100D5000064320468847054604E06C2F1DD0FF203F
:100D600001300643002D28D028464138192803D8E1
:100D70000120C00206432035204626602946029AFB
:100D80001646FFF7E9F9002810D001280BD0F61D10
:100D9000F008C0000830029055E74020E1E78020CD
:100DA000D5E70020D3E7361D02964CE76268284657
:100DB000A1689047206A401C44E7206AFEBD0000FD
:100DC0003A76000030B5C30D1906214A090E31D01C
:100DD000FF292FD000283ADB0102500201430120F5
:100DE0007D33C34000D24908012080071724091A27
:100DF0002406490882102343FF252D064C00211AA2
:100E000004D4891A02D45400201800E02146520864
:100E10005B19F3D51A220446944007D382068A420E
:100E200003D180218030884300E08030C009D9059B
:100E3000081830BDFF2904D04100FAD0C00FC00708
:100E400030BD410201D0104630BD0028FCDAFAE77F
:100E50000000C07F00487047100000200B4670B5AE
:100E6000024689078008084319469D08141AA941BB
:100E700025090807054308092C194841250A0106D8
:100E80000D43010A2C194141200C0D0428430D0C7F
:100E900000194D41002140194D41C0086907084320
:100EA000E908840F8D002543840024184D4124193E
:100EB0006D41121BAB4107E00925ED432C1152197E
:100EC00063410024401C61411C460A250026551B35
:100ED000B441F1D270BDFFB504460D4681B0243057
:100EE00000902168880604D51022E06991432160B2
:100EF00000E00120A84201DD471B00E00027049824
:100F0000A1697A191018081AA0612078C00602D4C5
:100F10002046FFF7A7FC002608E003986268A16856
:100F2000805D9047206A401C761C206204988642AF
:100F3000F3DB2078C0060AD52046FFF793FC06E0D5
:100F40006268A16830209047206A401C20623846C1
:100F50007F1E0028F4DC07E000986268A168405D0D
:100F60009047206A401C206228466D1E0028F3DC52
:100F70002046FFF78DFC2078000602D5022005B040
:100F8000F0BD0120FBE70000FFB50C461E468FB008
:100F900003CA089009914F007D0D00D16D1E0021FC
:100FA00008460020C0460321099A89050840002A06
:100FB00003DA8200801840080840800D01280A905A
:100FC00002DD0020C0430A90089807430DD0F04886
:100FD000F049281848430714189800281DD0754276
:100FE000291E1DDD0A9842421BE01898012802D0F4
:100FF0000020302104E00020F24305E02154401C91
:10100000B042FBDB30460022189B002121540F998F
:101010008B600A60486013B0F0BDBD1B6D1CDFE73C
:101020000A9A002900DA69420BA800F02DFC0BABEC
:1010300007CB03AB07C30899099800F091FC6B46F6
:1010400007C30146D4480918002D00910BDDD24991
:1010500003980A9A49424018002303A9039068465E
:1010600000F0EEFE08E003990A9A0023081803A98D
:101070000390684600F08EFE6B4607C30004000C28
:1010800003D00020C043410800E01046189A002A0F
:1010900003D00022009215461EE0751E05D4FFF70E
:1010A000DDFE303262556D1EF9D5012208430796E8
:1010B00002D000227F1C04E02078302801D10022D9
:1010C0007F1E002A069787D01EE0112D07DAFFF752
:1010D000C5FE303262556D1C02460A43F5D1084305
:1010E00003D00098002819D00EE00021681E05E00A
:1010F000235C625C63542254401E491C8142F7DB2E
:10110000A81B401E07950690079A18990020A05426
:101110000F98079B069A81600CC07CE7112600207F
:10112000189059E7D21DF0B50D460446D10893B08A
:10113000C90003C90C900D9106F0CCFE02460D9833
:10114000C00F01D02D2007E02068810701D52B209A
:1011500002E04007C00F4001032A0F9001D0072A88
:1011600005DB03462946204600F04AFB0EE12078C5
:10117000800601D5E76900E006272846652D04D0E2
:10118000662814D0672D69D12DE00020112F009022
:1011900001DB112300E07B1C0CAA03A910A8FFF7B8
:1011A000F3FE1199002610987D1C0E9142E001205B
:1011B0003B460CAAC0070B900120009003A910A881
:1011C000FFF7E2FE119D12981099002600280E9557
:1011D00001D1781C0D18781B02D446427D1C761E66
:1011E000E81B00903AE0012F00DA01270020112FC0
:1011F000009001DD112300E03B460CAA03A910A8D2
:10120000FFF7C2FE11993D46109800260E912178F5
:1012100009070BD40E99A94200DA0D4603A9012D46
:1012200004DD4A19203AD27F302A06D0B84201DACA
:10123000011D04DA012100910FE06D1EEFE7002887
:1012400002DC86192D1A03E0411CA94200DD0D467F
:10125000801B401C00900120C0070B9020780007E5
:1012600005D40098A84202DB0020C04300906946E4
:101270000020C8720B98012102AF0337C9078842CA
:1012800025D0022010902B2011900B9800280BDA0B
:1012900040420B902D20119006E00B9800F039FA97
:1012A00030317F1E0B9039701099481E0029109024
:1012B000F3DC0B980028F0D111987F1E387020883D
:1012C000000501D5452000E065207F1E387001A88B
:1012D000C01BC01D0B900F98002800D001204119A1
:1012E0000098C01709180B980818A169081A401E21
:1012F000A0612078C00602D42046FFF7B3FA0F9809
:10130000002805D06268A1689047206A401C2062CE
:101310002078C00625D52046FFF7A4FA21E0002E4C
:1013200007DB0E98B04204DD03A86268805DA16807
:1013300002E06268A16830209047206A761C401C59
:1013400020620098401E002800900AD100F054FA54
:10135000C06862680168405CA1689047206A401CD0
:10136000206228466D1E0028D9DC07E062683878C4
:10137000A1687F1C9047206A401C20620B99481E80
:1013800000290B90F2DC2046FFF782FA032042E6A8
:1013900001FCFFFF104D0000E1DFFFFFD21DF0B5A3
:1013A00004460D46D0088DB0C00046680768314637
:1013B000384606F08FFD0246F00F01D02D2307E0DE
:1013C0002068810701D52B2302E04007C00F4301AD
:1013D0006846002B037001D0012000E00020032AA2
:1013E0000A9001D0072A04DB2946204600F008FABB
:1013F0002DE12078800601D40D2500E0E56970001C
:10140000400D0D2D01904BDA300D00210B90084658
:101410000020C046032189050840002E05DA82001D
:101420008018C20F1018401008408015012801DDF7
:101430000020C043A9000023182906D39C460A4671
:101440000123183A1B07D34003E001221205CA40CA
:1014500094460C31202902D33A46203900E0324626
:101460008A40002802DD002A06D119E0002817D1A1
:101470000121C9078A4213D3194663467F185E418A
:10148000002806D10120C007824202D108468743C6
:101490009E430B98310D814202D00198401C01906F
:1014A0002088000502D57149794402E06F497944EA
:1014B00019396B460A9830221A540A980A7C401C43
:1014C0001A54401C0A900198002801DC302000E0EA
:1014D00031201872019A0120002A02D0644BD218E0
:1014E00004E072003A4302D0614A521C0192002D7E
:1014F00002DC2278120703D56A462E2050720220A1
:101500000022864694460CE032033601120F6D1E0F
:101510008B5C02AA13546246521C401C9446052A56
:1015200001DA002DF0DC002202AE08E03B0F3F01A3
:10153000CB5C521C6D1E3354401C082A01DA002D6E
:10154000F4DC23689A0601D511E0401E704504DDE5
:101550003218203AD27F302AF7D0002807DD32181F
:10156000203AD27F2E2A02D11A0700D4401E002D25
:1015700003DD3E223254401C6D1E497C31540199DA
:10158000401C002906DA2D21471C315401984042A5
:10159000019003E02B21471C315401987D21C900A3
:1015A000884206DBFEF79AFF3030F0557F1C019130
:1015B00001E0642808DB01986421FEF78FFF3030DA
:1015C000F0557F1C019101E00A2806DB01980A21F1
:1015D000FEF784FF3030F0557F1C01980A21FEF79A
:1015E0007DFF3031F1550A98A1697F1C7A191018D6
:1015F000081AA0612078C00602D42046FFF732F90D
:10160000216A6E460A980818206204E06268307801
:10161000A168761C90470A98401E0A90401CF5D19C
:101620002078C00602D52046FFF71CF902AE09E07B
:101630003078761C3E280DD06268A1689047206AF9
:10164000401C20627F1EF3D22046FFF721F90DB027
:101650000320F0BD206A4019206203E06268A1689F
:10166000302090476D1EEDD3F8E70000146E0000A7
:1016700001FCFFFF10B54369002B02D0C046C046F5
:1016800001E0FFF728F9012010BD1278014624314E
:101690000A7000224A700122ECE711680022D2434E
:1016A000E8E710B54369002B02D0C046C04601E010
:1016B000FFF7AAF9012010BD128801462431828467
:1016C0000022C2840122ECE711680022D243E8E73D
:1016D000F8B516460C46054600F086F80368FF206C
:1016E0000230C05C012807D0FF2C0FD8185D0028FD
:1016F0000CD001202C70F8BDFF3332462146083350
:101700001868C71828460023B847F8BD0020C04312
:10171000F8BD01468008081A02091018020A1018BC
:10172000020C1018C008820012185200891A01E039
:10173000401C0A390A29FBD27047000010B5FF236C
:101740001B0644009C421DD84C009C421AD80346FC
:10175000124A0B4307D4401A02D3EFF3008010BDA6
:10176000EFF3008010BD081A03D3EFF3008090431D
:1017700005E0EFF3008001219043C907084380F39F
:10178000008810BD0D231B041A4204D0114600200E
:1017900000F0AEFB10BD00F0C3FB10BD00000090D8
:1017A00000487047100000207546FFF7F9FFAE466D
:1017B000050069465346C008C000854618B020B5EC
:1017C000FEF766FD60BCB64600260027C0C5C0C552
:1017D000C0C5C0C5C0C5C0C5C0C5C0C5403D49081D
:1017E00049008D467047000010B500F005F8001D57
:1017F00010BD00BF8D67000000487047300000201A
:10180000F8B51F46044601230068DB0203260146A3
:101810001840072A05DB002801D017A506E017A508
:1018200004E0002801D016A500E016A51020814391
:101830002160A069C01E002FA06101D0401EA061E0
:101840002046FFF70FF8002F09D038466268A168DC
:101850009047206A401C2062C01C206206E0206A7B
:10186000FAE762682878A1686D1C9047761EF8D266
:101870002046FFF70DF8F8BD4E414E006E616E0038
:10188000494E4600696E6600F7B516468AB0334881
:1018900078446C4603467C33C06F5A689B680DC41D
:1018A0002E487844763003AC0DC80DC43720C001F3
:1018B000081837211B30FEF711FE05460C46803D07
:1018C0001B3C02D56442012000E000200027099063
:1018D00010E0E0070CD00C202049784379443246D0
:1018E0004C3941186846012300F054FA6B4607C38F
:1018F00064107F1C002CECD1184F7F442E3F16E063
:10190000E80712D02001C0190EC80691089307926B
:101910000068F04201D1981908903246012306A9C7
:1019200003A800F037FA03AB07C36D10641C002D49
:10193000E6D10998002806D032466946012303A85B
:1019400000F07EFA05E001233246694603A800F064
:1019500021FA0A9B07C30DB0F0BD0000406A0000E9
:10196000034640000A4610B5400D0BD00121C907BF
:101970000F24A40200191C0364082143540D2143C1
:10198000D20207E000210120F2E7D40F49002143F1
:101990005200401E0029F8DADB0FDB07184310BDA8
:1019A000FFB50D46144685B04868516806F07AFACE
:1019B00000910190A868A16806F074FA0291039062
:1019C000A868616806F06EFA029A121882420292C2
:1019D00001D2012000E00020019A0B18D218002843
:1019E000019202D08A4202D903E08A4201D2012048
:1019F00000E000200099081800906868A16806F0CF
:101A000051FA029A12188242029201D2012000E099
:101A10000020019A0B18D2180028019202D08A42A5
:101A200002D903E08A4201D2012000E0002000999F
:101A300008180090286821684000490040084908BB
:101A40004018FA49471814E001994000C90F0843AB
:101A50000090019802994000C90F08430190029834
:101A600003994000C90F08430290039840007F1E6D
:101A7000039000980028E7DA0898002801D0EC4E7F
:101A800000E00026B74201DA012000E00020002833
:101A900004902AD0F71BF806C00E15D0029B202117
:101AA000091A039A8B401A430392029A019BC2407F
:101AB0008B401A430292019A009BC2408B400099CE
:101AC0001A430192C14000917B110DD06F46032053
:101AD000C11A03D500218200B95003E08A008100B9
:101AE000BA587A50401EF3D5374603980299002819
:101AF00000D00120014308980291002808460CD02C
:101B0000002800D001200199019A490508430121CC
:101B1000D20AC902D202019200E001210E9B0122E9
:101B2000D207012B02D0002B03D013E0002807D1ED
:101B300020E0904204D890420CD1019B0B4209D086
:101B4000019B5918019105D10099491C009101D1BF
:101B50007F1C009200280DD0102108460020C046AE
:101B60000498002806D00F98002803D008210846C2
:101B70000020C04628682168019B009A4840C10F98
:101B80000598C90739430EC009B0F0BDFFB587B04D
:101B9000099A089808995368926840688968964637
:101BA0000022039317469446089A12685300099A34
:101BB0005B081268520052089A1A9E4BD4180A9A6F
:101BC000002A01D0352200E04022069200220123A3
:101BD00015460492DB07059324E0002D05D17546D8
:101BE0000346039E4D1BB34109D375466646039BCE
:101BF000491B049D9841059B7519AC465F4163469E
:101C00003B4308D0059B049EDD0776082E435B0806
:101C10000496059301E0521E641EC50FED07491896
:101C20004041521C069B9A42D7DB002D04D17546D9
:101C3000039A6B1A824101D203200CE0039A0B46EF
:101C40006B404240134303D0014303D0012002E024
:101C5000022000E0002061460191002100970291DE
:101C60000A99002905D0614640020143704B019159
:101C700002E08007002302909C4201DA012000E08C
:101C8000002007003AD01A1BD006C00E15D0029DC6
:101C90002021019C091AC5408C402543029C8C40A0
:101CA00000D001242543019C0295009DC4408D4035
:101CB00000992C430194C140009154111DD06D46F0
:101CC0000221002202290CD10320001B07E000287A
:101CD00004DB8600AE59002E00D00122401C0328F0
:101CE000F5DB081B02D588002A5004E08000285844
:101CF00010438A00A850491EE3D51C460A980028C4
:101D000002980CD0002800D001200199019A4905C1
:101D100008430121D20AC902D202019200E0012146
:101D2000109B0122D207012B02D0002B03D013E01D
:101D3000002807D11FE0904204D890420CD1019BAB
:101D40000B4209D0019B5918019105D10099491CFA
:101D5000009101D1641C009200280CD0102108468B
:101D60000020C046002F06D01198002803D008217B
:101D700008460020C04608980999019A009B00680F
:101D800009684840C10F0798C907214382600AC00B
:101D90000BB0F0BD00B585B0019300920A46014634
:101DA000002302A8FFF7FCFD02A807C805B000BD8C
:101DB000FFB50A461F4685B007990193012300919C
:101DC000014602A8FFF7ECFD02990398049ECA0F92
:101DD0004900D20700920F22490892028C1A002172
:101DE000002800DB0C46450013486D08844214D3DC
:101DF000079A002A04DA441E0026104DF64302E03A
:101E000004460D460E46102108460020C046002F0D
:101E100003D0042108460020C0462005E90A0843F3
:101E2000009908436905F20A1143ADE602C0FFFFBD
:101E3000013C0000FF3F0000FF070000FFFFFF7FA5
:101E400000B585B0019300920A460146002302A81E
:101E5000FFF79CFE02A807C8A8E7FFB50A461F4681
:101E600085B00799019301230091014602A8FFF76D
:101E70008DFE02990398049ECA0F4900D207009272
:101E80000F22490892028C1A0021002800DB0C4620
:101E9000450011486D08844214D3079A002A04DAD9
:101EA000441E00260D4DF64302E004460D460E4644
:101EB000102108460020C046002F03D00421084608
:101EC0000020C0462005E90A084300990843690537
:101ED000F20A114358E60000FF070000FFFFFF7FF2
:101EE00010B50446C046C0462046FEF7C1F910BDF5
:101EF000C80212D54803400F002804D0C803C043CD
:101F0000012188407047EFF30080000100090321A0
:101F10000907084380F300887047002070470000DD
:101F200010B5024800F048F810BD00000000C07F66
:101F3000024670B50A4392072AD11E4DEE0104C82D
:101F400008C9541B9443344017D0D0B2D9B2401AB8
:101F50002106014310D190B299B2401A21040143E5
:101F60000AD110021902000A090A401A210201438B
:101F700002D1100E190E401A70BD9A42DFD010BA6D
:101F800019BA884201D9012070BD0020C04370BD3C
:101F900002780B78401C491C002A09D09A4207D1CC
:101FA00002780B78401C491C002A01D09A42EFD0DD
:101FB000D01A70BD0101010110B50C461107090FBF
:101FC000092904D00A290AD008290CD104E01146B5
:101FD0000820FFF78DFF06E0510606D501E0510607
:101FE00001D50120C007214610BDD10607D501014A
:101FF0000909CC084907000E0006044309E0410F17
:1020000020024907000A0143200E00061D22D1418B
:1020100001430846E7E7000001491820ABBEFEE790
:10202000260002007047000080B5024800F0D0FC96
:1020300080BDC0464806002080B582B0019001985E
:10204000806A00900098406D5021084244D1FFE71B
:102050000099486D012252021043486500980068BB
:10206000C0680005800F002832D1FFE700982021CA
:10207000405C00282CD1FFE700980068006800074A
:10208000002824D5FFE700980068806804210840F4
:10209000800800280FD1FFE70098016848680C22EB
:1020A000904348600098406D01210843090288432D
:1020B000009948650AE00099486D20221043486560
:1020C0000099886D012210438865FFE7FFE7FFE76D
:1020D000009800F06BFC05E00098C06C416B019823
:1020E0008847FFE702B080BD80B582B001900198BB
:1020F000806A00900099486D40221043486500991D
:10210000886D042210438865009800F05DFC02B0E1
:1021100080BD80B582B001900198806A00900098DF
:1021200000F04EFC02B080BD80B584B003900398EF
:102130000190094800680949FEF7C6F9019948432A
:102140000290FFE70298002804D0FFE70298401EA3
:102150000290F7E704B080BD0000002040420F006D
:1021600080B584B0029000200190029909688968C6
:10217000032211400129009005D1FFE70298006871
:1021800000680090FFE70098C007002845D1FFE7EE
:10219000029800688068254908420DD0FFE702993F
:1021A000486D102210434865029A916D0120014349
:1021B000916503A9087034E00298026891680120D3
:1021C00001439160FFF7B0FF01F0DCFA0190FFE7F7
:1021D000029800680068C00700281DD1FFE701F0E1
:1021E000D1FA0199401A0B2815D3FFE7029800682D
:1021F0000068C00700280DD1FFE70299486D102242
:1022000010434865029A916D01200143916503A92D
:10221000087006E0FFE7DBE7FFE703A9002008708E
:10222000FFE703A8007804B080BDC0461700008017
:1022300080B584B0002003900290FFE70298C72881
:1022400017DCFFE7029841001048405AFEF7FCFAFD
:102250000F49FEF71DFA039901910E4905F016FF8B
:10226000019905F0A3FE0390FFE70298401C02903D
:10227000E4E703980349FEF70BFA0349086004B04A
:1022800080BDC04600004843040000207C000020C0
:1022900000F07F453333534080B5024800F017FF0C
:1022A00080BDC046A406002084B003900291019234
:1022B000009303994A6C1C20024001209040096C55
:1022C000486000980399096848600398806810285E
:1022D00009D1FFE70198039909688860029803997A
:1022E0000968C86008E00298039909688860019845
:1022F00003990968C860FFE704B0704781B0EFF345
:10230000108072B60090FFE7FEE70000B0B58AB01B
:102310000191044601980E990994089007A802704B
:1023200006AA137005AA117000787F2801DBFFE769
:102330009AE004A900200870FFE704A800789A49F1
:1023400009684978884200DB8EE09748016807A851
:102350000278203A4878504304AA1278801840182E
:10236000807803A9087002A900200870FFE7002107
:1023700002A840568C490968097888426EDAFFE75E
:1023800003A80078C00700282CD0FFE78E4800780B
:10239000012810D1FFE7099804A909784018089985
:1023A000002302AAD256891806AA127800B209B2EE
:1023B00003F0C2FD15E0099804A90A7882490B7858
:1023C0001946514340180899002402AA14571A4686
:1023D0006243891806AA127800921A4600F059F84A
:1023E000FFE731E005A8007800282CD1FFE7764808
:1023F0000078012810D1FFE7099804A9097840184E
:102400000899002302AAD256891805AA127800B2A8
:1024100009B203F091FD15E0099804A90A786A4908
:102420000B781946514340180899002402AA145702
:102430001A466243891805AA127800921A4600F0DB
:1024400028F8FFE7FFE7FFE7FFE70298401C02A933
:10245000087003A908784008087088E7FFE7049827
:10246000401C04A9087068E70AB0B0BD10B586B07A
:1024700005900491039202A80370059A0499039BA6
:10248000CB185B1E00780090104600F09FF806B055
:1024900010BDB0B586B004460A980594049103A90E
:1024A0000A8002A90B8001A9087005980090FFE737
:1024B0000098059903AA1288891888420DDAFFE767
:1024C0000098049902AA128801AB1B78FFF7CEFF8F
:1024D000FFE70098401C0090EAE706B0B0BD00009E
:1024E000B0B58AB004460E9809940891079206A9DF
:1024F0000B7005A90870099804900798007803A943
:102500000870FFE70798411C07910078002841D028
:10251000FFE70498089903AA127806AB1B7805AC6C
:10252000019424780094FFF7F1FE01981E49096890
:102530004A78254909785143049A8918491C04911D
:102540000078002821D1FFE702A900200870FFE7EA
:1025500002A80078144909680A781B490978514390
:10256000884211DAFFE70498401E089902AA1278FF
:10257000891809B200B2002203F0DEFCFFE70298DE
:10258000401C02A90870E3E7FFE70798007803A959
:102590000870B7E70AB0B0BD81B00090009802495A
:1025A000086001B07047C0464406002081B0014673
:1025B000684601700078002804D0FFE700980249BF
:1025C0000870FFE701B070470800002010B590B018
:1025D000044612980F940E910D920C930BA908705B
:1025E0000C980E99401AC1174840411A0D980F9A3D
:1025F000801AC2175040821A012000230093914292
:10260000019001DC0098019001990AA801800088DE
:1026100000280DD0FFE70F9809900E980F900998A9
:102620000E900D9808900C980D9008980C90FFE76C
:102630000F980D9988420DDDFFE70F9807900D98D0
:102640000F9007980D900E9806900C980E90069893
:102650000C90FFE70D980F99411A05A801800C997D
:102660000E9A891ACA175140891A04AA11800021AA
:10267000405EC10F4018400803A908800E980C99CD
:10268000884204DAFFE702A90120088003E002A9DA
:102690001F480880FFE7FFE70F980D99884234DC58
:1026A000FFE70AA8008800280AD0FFE700220EA84A
:1026B000805E0FA9895E0BAA127803F03DFC09E049
:1026C00000220FA8805E0EA9895E0BAA127803F083
:1026D00033FCFFE704990398411A03A80180002105
:1026E000405E00280CD5FFE7002102A8415E0E984D
:1026F00040180E9005990398401803A90880FFE739
:10270000FFE70F98401C0F90C6E710B010BDC04601
:10271000FFFF000080B588B00690059104A9002055
:10272000087003900290FFE706985021405C012852
:1027300004D1FFE707A90220087082E00699502221
:1027400001208854FFE7FFE70698006881680320AE
:10275000014000200129019005D1FFE7069800689B
:1027600000680190FFE70198C007002856D1FFE7F5
:102770000698406D02210843012211028843069900
:10278000486506980068C0680323184002900698C0
:102790000168C8689843C860069801688868D207CD
:1027A0001043886000F0EEFF0390FFE70698006892
:1027B0008068C00F012822D1FFE700F0E3FF0399F2
:1027C000401A0B281AD3FFE7069800688068C00FEC
:1027D000012812D1FFE70698406D1021084302211D
:1027E000884306994865FFE70699502200208854DF
:1027F000FFE707A90120087023E0FFE7D6E7029A68
:1028000006980168C8681043C8600698406D0121A9
:102810000843022188430699486508E00699486DF7
:1028200020221043486504A901200870FFE7FFE754
:102830000699502200208854FFE7049807A90870E1
:10284000FFE707A8007808B080BD000080B584B01D
:1028500002900191FFE702985021405C012804D1C9
:10286000FFE703A90220087093E00299502201209B
:102870008854FFE7FFE70298006880680421084059
:10288000800800280FD0FFE70299486D20221043EE
:102890004865FFE70299502200208854FFE703A90A
:1028A0000120087075E0019840683C49884234D0A6
:1028B000FFE7019802683C48024002980168886A74
:1028C0001043886201988078400700280AD5FFE706
:1028D000344908680122D205104308600A20FFF736
:1028E00023FCFFE7019880788007002807D5FFE7E1
:1028F0002C4908680122920510430860FFE70198FF
:102900008078C007002807D0FFE726490868012221
:10291000120610430860FFE731E001980068C243E7
:102920001F48024302980168886A10408862019833
:1029300080784007002807D5FFE71A490868012278
:10294000D20590430860FFE701988078800700284F
:1029500007D5FFE7134908680122920590430860F4
:10296000FFE701988078C007002807D0FFE70D49EE
:1029700008680122120690430860FFE7FFE7FFE7BF
:102980000299502200208854FFE703A90020087014
:10299000FFE703A8007804B080BDC0460110000026
:1029A0000000F8FF08270140FFFF070080B582B054
:1029B0000190024805F0C2F902B080BD5008002025
:1029C00081B0009001B0704781B0009001B07047B5
:1029D00080B584B003900398006800680290039863
:1029E00000684068019002A800784007002806D5DA
:1029F000FFE701980421084004280CD0FFE702A853
:102A00000078000700285AD5FFE701A800780007E2
:102A1000002854D5FFE70398406DC006002807D46E
:102A2000FFE70399486D0122520210434865FFE712
:102A300003980068C0680005800F002831D1FFE7C7
:102A400003982021405C00282BD1FFE702A80078E2
:102A50000007002824D5FFE7039800688068042158
:102A60000840800800280FD1FFE7039801684868F4
:102A70000C22904348600398406D012108430902ED
:102A80008843039948650AE00399486D2022104362
:102A900048650399886D012210438865FFE7FFE7C9
:102AA000FFE70398FFF782FF03988069012805D0AC
:102AB000FFE7039801680C200860FFE7FFE702A822
:102AC00000780006002814D5FFE701A8007800066A
:102AD00000280ED5FFE70399486D01221204104328
:102AE0004865039800F08AF903980168802008601F
:102AF000FFE702A80078C006002824D5FFE701A858
:102B00000078C00600281ED5FFE70398006B002858
:102B100007D0FFE703980068C068C00700280DD001
:102B2000FFE70399886D02221043886503980168C6
:102B3000102008600398FFF747FFFFE7039801683C
:102B400010200860FFE704B080BD000080B584B0AD
:102B500002900298002804D1FFE703A90120087021
:102B600043E10298406D00280AD1FFE70299002056
:102B70008865029950228854029800F043F9FFE7D3
:102B80000298406D10210840102809D0FFE70298F4
:102B90000068806804210840800800280FD0FFE703
:102BA0000299486D102210434865FFE702995022B0
:102BB00000208854FFE703A90120087015E102985E
:102BC000406D0221084301210902884302994865AA
:102BD00002980068816803200140002001290190CB
:102BE00005D1FFE70298006800680190FFE70198AF
:102BF000C007002845D1FFE7FFE70298406803219E
:102C0000890788420ED0FFE70298406801218907B2
:102C1000884207D0FFE7029840680121C90788422F
:102C20000ED1FFE7029801680869032292079043DA
:102C3000086102984268016808691043086112E05F
:102C40000298016808690322920790430861694964
:102C500008680F229204904308600298426808684E
:102C600010430860FFE7FFE702980168C868182270
:102C70009043C860029882680168C8681043C860C1
:102C8000FFE75C49086801225206904308600298F9
:102C9000406B42060868104308600298006880682C
:102CA000C000002808D4FFE7029801688868012264
:102CB000120710438860FFE702980168C8684E4A0F
:102CC0001040C86002980090C2680169891E4B429A
:102CD000594189000A432021415C49030A432C21C0
:102CE000415C49000A43016B0A43816989030A4335
:102CF000C169C9030A430168C8681043C8600298E3
:102D0000406AFF21C231884209D0FFE70298426A37
:102D1000816A0A430168C8681043C860FFE70298E7
:102D20002121405C01281AD1FFE702982021405C54
:102D3000002808D1FFE702980168C8680122120440
:102D40001043C8600AE00299486D2022104348658C
:102D50000299886D012210438865FFE7FFE702981A
:102D6000C06B012818D1FFE7029801680869FF22AB
:102D70009200904308610298026C416C0A43816C96
:102D80000A430168086910430861029801680869EC
:102D90000122104308610EE0029800680069C00734
:102DA000002807D0FFE702980168086901229043D4
:102DB0000861FFE7FFE7029801684869072290432E
:102DC00048610298826B0168486910434861029922
:102DD000002088650299496D012211430222914326
:102DE000029A516503A90870FFE703A8007804B0B0
:102DF00080BDC046082701401902FEFF81B0009047
:102E000001B0704780B58CB00B9000200A900990FB
:102E10000890079006900B9800682749884248D18F
:102E2000FFE7264908680122520210430860FFE7C5
:102E30002348026801210A430260006808400590A7
:102E40000598FFE7012002900690032007900020DC
:102E5000039008900520000706A900F0DBFA029A0B
:102E6000039918480490184B036041608160C16069
:102E7000802303611302436192028261C161016296
:102E800000F0D4F9002803D0FFE7FFF737FAFFE797
:102E9000FFE70B980B49C1640B988862FFE70C2091
:102EA00001900022114600F0ECFC019800F0DEFCDD
:102EB000FFE70CB080BDC046002401403410024042
:102EC0002C100240A40600200800024080B586B005
:102ED00004900391029201A90020087004980068F0
:102EE0008068042108408008002861D1FFE7FFE7DF
:102EF00004985021405C012804D1FFE705A9022075
:102F000008705DE00499502201208854FFE7FFE734
:102F100004980168C86801221043C8600498C06919
:102F2000012806D0FFE70498FFF71AF901A90870F5
:102F3000FFE701A80078002839D1FFE70498406D29
:102F40000121090208432049084004994865049971
:102F500000208865FFE70499502200208854FFE78D
:102F60000498C16C1948C8620498C16C1848086379
:102F70000498C16C17484863049801681C200860D5
:102F80000498016848681022104348600499C86C8E
:102F900009684031039A029B00F0B6F901A9087054
:102FA000049801688868042210438860FFE703E002
:102FB00001A902200870FFE7019805A90870FFE742
:102FC00005A8007806B080BDFEF1FFFF392000089B
:102FD00013210008E920000883B001906946002011
:102FE000087001982521405C02280DD0FFE7019967
:102FF0000420C863FFE70199242200208854FFE7DA
:1030000002A90120087020E00198016808680E22DA
:1030100090430860019802681168012081431160A3
:10302000019A536C1C210B4001469940126C51606F
:10303000019925228854FFE7019924220020885411
:10304000FFE7009802A90870FFE702A8007803B024
:10305000704780B582B001906946002008700198E1
:103060002521405C022807D0FFE701990420C863AE
:1030700069460120087026E00198016808680E2260
:103080009043086001980268116801208143116033
:10309000019A536C1C210B4001469940126C5160FF
:1030A000019925228854FFE70199242200208854A1
:1030B000FFE70198806B002804D0FFE70198816B3F
:1030C0008847FFE7FFE76846007802B080BD80B51B
:1030D00084B003900398006C006802900398006825
:1030E0000068019002980399496C1C221140C84065
:1030F0004007002826D5FFE701A8007840070028F0
:1031000020D5FFE70398006800688006002807D4F0
:10311000FFE7039801680868042290430860FFE70E
:1031200003994A6C1C20024004209040096C4860BE
:103130000398006B002804D0FFE70398016B8847D1
:10314000FFE770E002980399496C1C221140C840C7
:103150008007002830D5FFE701A800788007002805
:103160002AD5FFE7039800680068800600280BD482
:10317000FFE70398016808680A22904308600399F2
:10318000252201208854FFE703994A6C1C20024045
:1031900002209040096C4860FFE703992422002038
:1031A0008854FFE70398C06A002804D0FFE703981B
:1031B000C16A8847FFE735E002980399496C1C22F1
:1031C0001140C840000700282AD5FFE701A8007871
:1031D0000007002824D5FFE70398016808680E223D
:1031E00090430860039A536C1C2003400120014661
:1031F0009940126C51600399C86303992522885441
:10320000FFE70399242200208854FFE70398406BCE
:10321000002804D0FFE70398416B8847FFE700E0F0
:10322000FFE7FFE7FFE704B080BD000080B584B092
:1032300002900298002804D1FFE703A9012008703A
:1032400055E00298009000682B4940181421FDF7C2
:103250003BF9009980004864029928480864029963
:103260002522022088540298006800680190019885
:1032700023490840019002988168C268114302699D
:1032800011434269114382691143C2691143006AC3
:103290000143019808430190019802990968086068
:1032A0000298806801218903884213D0FFE70298C1
:1032B000406C1C2318400F2282401249086890433A
:1032C000086002984268406C1840824008681043C9
:1032D0000860FFE702990020C863029A25230121B4
:1032E000D15402992422885403A90870FFE703A847
:1032F000007804B080BDC046F8FFFDBF000002406A
:103300000F80FFFFA800024080B586B004900391B3
:1033100002920193694600200870FFE70498242177
:10332000405C012804D1FFE705A9022008704CE0A9
:103330000499242201208854FFE7FFE704982521FF
:10334000405C012833D1FFE70499252202208854EC
:1033500004990020C863049801680868012290431A
:10336000086004980399029A019BFEF79DFF049858
:10337000006B002807D0FFE70498016808680E2258
:10338000104308600CE00498016808680422904328
:1033900008600498016808680A2210430860FFE783
:1033A00004980168086801221043086009E0FFE7FB
:1033B0000499242200208854FFE7694602200870FF
:1033C000FFE7009805A90870FFE705A8007806B098
:1033D00080BD000080B584B0039000F0D3F9029066
:1033E000039801900198401C002806D0FFE7EB48A5
:1033F0000178019840180190FFE7FFE700F0C2F95B
:103400000299401A0199884201D2FFE7F6E704B019
:1034100080BDC0468CB00B900A91002009900890A6
:103420000790FFE70A9800680999C840002800D172
:1034300062E10A980068099A0121914008400890C9
:103440000898002800D153E10A98406803210840F9
:10345000012807D0FFE70A984068032108400228A6
:103460002CD1FFE70B988068079009984000032152
:1034700081400798884307900A98C16809984000DE
:10348000814007980843079007980B9988600B982C
:103490004068079009980121814007988843079068
:1034A0000A9840681021084001090998814007984E
:1034B0000843079007980B994860FFE70A9840680F
:1034C00003210840032816D0FFE70B98C068079037
:1034D00009984000032181400798884307900A9883
:1034E0008168099840008140079808430790079831
:1034F0000B99C860FFE70A9840680321084002283A
:1035000020D1FFE70B980999C90889004018006A83
:10351000079009984007C00E0F2181400798884303
:1035200007900A98016909984007C00E81400798E2
:103530000843079007980B99099AD20892008918B6
:103540000862FFE70B980068079009984100032084
:1035500002468A400799914307910A9949680140B8
:1035600009984000814007980843079007980B99F5
:1035700008600A9880798007002800D1B7E0BA492E
:1035800008680122104308600998032188435B49B9
:103590004058079009988007000F0F218140079835
:1035A000884307900B9805210907884203D1FFE75C
:1035B0000020069038E00B985149884203D1FFE77C
:1035C000012005902DE00B984E49884203D1FFE77A
:1035D0000220049022E00B984B49884203D1FFE778
:1035E0000320039017E00B984849884203D1FFE776
:1035F000042002900CE00B99454A05200623009315
:103600009142019001D00098019001980290FFE74B
:1036100002980390FFE703980490FFE70498059051
:10362000FFE705980690FFE7069909988007000FC5
:10363000814007980843079007980999032291430E
:103640002E4A8850334800680790089907988843A5
:1036500007900A988079C006002805D5FFE70899E9
:10366000079808430790FFE707982A4908602A4807
:103670000068079008990798884307900A9880790E
:103680008006002805D5FFE70899079808430790AA
:10369000FFE70798204908602048006807900899CC
:1036A0000798884307900A9880798007002805D5F5
:1036B000FFE70899079808430790FFE7079817491D
:1036C0000860174800680790089907988843079092
:1036D0000A988079C007002805D0FFE70899079865
:1036E00008430790FFE707980D490860FFE7FFE7E9
:1036F0000998401C099095E60CB0704708000140FD
:103700000004005000080050000C00500010005051
:10371000001C0050080401400C0401400404014056
:103720000004014084B0009101460098039102A971
:103730000880039800690988084204D0FFE701A9BE
:103740000120087003E001A900200870FFE701A82C
:10375000007804B0704783B0029001A801806846E9
:1037600002700078002805D0FFE701A800880299C0
:10377000886104E001A8008802998862FFE703B02D
:1037800070470000064800687047C0462E4802781F
:1037900003490868801808607047C0460900002087
:1037A000C008002080B582B001A9002008700B4934
:1037B0000868402210430860032000F011F8002838
:1037C00004D0FFE701A90120087002E000F040F8F2
:1037D000FFE701A8007802B080BDC046002002408B
:1037E00080B584B0029017480068019016480178AF
:1037F0007D20C000FCF768FE01460198FCF764FEDE
:1038000001F088FA002804D0FFE703A9012008701E
:1038100014E00298032809D8FFE702990022D04358
:1038200000F02FF802980949086003E003A901207D
:10383000087003E003A900200870FFE703A80078E0
:1038400004B080BD00000020090000200C00002012
:1038500005490868012210430860E6490868120714
:10386000104308607047C0463410024080B582B0F3
:10387000014601A801700021405603F011FB02B07F
:1038800080BD80B584B0034603A803700291019205
:1038900000214056029903F019FB04B080BD0000DE
:1038A00080B586B0049001A90020087004980068D3
:1038B00020210840202806D0FFE704984078000720
:1038C000002800D41FE1049800788006002801D564
:1038D000FFE7FFE7049840780007002801D5FFE7DD
:1038E000FFE7C4480068C000002809D4FFE7C14AC8
:1038F0001168012003071943116001A90870FFE74F
:10390000BD480068C00500281DD4FFE7BA49086813
:103910000122120210430860FFF734FF0390FFE713
:10392000B5480068C00500280CD4FFE7FFF72AFF60
:103930000399401A652804D3FFE705A903200870FE
:1039400053E1EDE7FFE7AD48006803210A051040A9
:1039500002900298049949681140884209D1FFE712
:10396000029804998968032212051140884214D0F4
:10397000FFE70498406803210904084088420BD1FE
:10398000FFE79E4800688003002804D5FFE705A9EB
:103990000120087029E1FFE7FFE79948006803214B
:1039A0000904084002900298002851D0FFE70298CD
:1039B00004994968032212041140884207D0FFE7A6
:1039C000049800682021084020280FD0FFE70298C3
:1039D00004998968032212041140884238D0FFE715
:1039E000049840780007002832D5FFE7844908682A
:1039F000032212049043029008680122D20410436B
:103A000008600868904308600298086002A840783F
:103A1000C00700281BD0FFE7FFF7B4FE0390FFE7C5
:103A200077480068012149020840400A00280DD16A
:103A3000FFE7FFF7A7FE0399401A7349884204D3B2
:103A4000FFE705A903200870CFE0E9E7FFE7FFE7FC
:103A5000049840780007002821D5FFE7FFE7FFE73B
:103A60000498806803210904084088420BD1FFE7CD
:103A700062490868032213059843049A92681A4021
:103A800080180860FFE7FFE70498826803200004BD
:103A900002405B49086810430860FFE7FFE70498AD
:103AA00000788006002821D5FFE7FFE7FFE70498AC
:103AB000406803210904084088420BD1FFE74F49C1
:103AC0000868032213059843049A52681A40801824
:103AD0000860FFE7FFE70498426803200004024003
:103AE0004749086810430860FFE7FFE701A800782E
:103AF000012807D1FFE73F490868012212079043D8
:103B00000860FFE7FFE704980078C007002809D0A5
:103B1000FFE73C49086803229043049AD2681043A7
:103B20000860FFE7049800788007002809D5FFE7C0
:103B3000344908680C229043049A126910430860C3
:103B4000FFE704980078400700280AD5FFE72D49D1
:103B50000868032292029043049A52691043086055
:103B6000FFE704980078000700280AD5FFE72549F9
:103B70000868032212039043049A92691043086074
:103B8000FFE704984078C00700280AD0FFE71D49E6
:103B90000868032212049043049AD2691043086013
:103BA000FFE704980078400600280AD5FFE715498A
:103BB0000868012292069043049A526A10430860F2
:103BC000FFE704980078000600280AD5FFE70D49B2
:103BD0000868032292049043049A126A1043086012
:103BE000FFE705A900200870FFE705A8007806B0E8
:103BF00080BDC046381002400070004000100240F6
:103C0000501002404C1002408913000080B586B06D
:103C1000049003910498002804D1FFE705A901202E
:103C2000087062E10398B349096801221140884293
:103C300021D9FFE7AF49086801229043039A104356
:103C40000860FFF79FFD0290FFE7AA480068012186
:103C50000840039988420DD0FFE7FFF793FD0299D2
:103C6000401AA549884204D3FFE705A9032008703C
:103C70003BE1EAE7FFE7049800788007002809D5D0
:103C8000FFE7F3490868F0229043049A92681043D2
:103C90000860FFE704980078C007002800D1BCE066
:103CA0000498406802280ED1FFE7EB480068012124
:103CB00049040840400C002804D1FFE705A9012071
:103CC000087012E134E00498406803280ED1FFE741
:103CD000E1480068012149060840400E002804D14F
:103CE000FFE705A901200870FFE020E00498406884
:103CF00001280DD1FFE7D84800680421084080085A
:103D0000002804D1FFE705A901200870EDE00DE0CF
:103D1000D1480068012149020840400A002804D126
:103D2000FFE705A901200870DFE0FFE7FFE7FFE7F5
:103D3000C749086803229043049A526810430860F8
:103D4000FFF720FD029004984068022816D1FFE793
:103D5000FFE7BF4800680C21084008280DD0FFE7A6
:103D6000FFF710FD0299401A6349884204D3FFE728
:103D700005A903200870B8E0EBE74DE0049840681F
:103D8000032816D1FFE7FFE7B14800680C2108407F
:103D90000C280DD0FFE7FFF7F5FC0299401A5649B1
:103DA000884204D3FFE705A9032008709DE0EBE7F4
:103DB00031E004984068012816D1FFE7FFE7A448E6
:103DC00000680C21084004280DD0FFE7FFF7DAFC5B
:103DD0000299401A4849884204D3FFE705A9032005
:103DE000087082E0EBE715E0FFE7994800680007FC
:103DF000800F00280DD0FFE7FFF7C4FC0299401A9E
:103E00003D49884204D3FFE705A9032008706CE010
:103E1000EBE7FFE7FFE7FFE7FFE7039835490968AE
:103E200001221140884221D2FFE73249086801226D
:103E30009043039A10430860FFF7A4FC0290FFE749
:103E40002C48006801210840039988420DD0FFE703
:103E5000FFF798FC0299401A2749884204D3FFE7EC
:103E600005A90320087040E0EAE7FFE7049800781E
:103E7000400700280AD5FFE77549086807221202A3
:103E80009043049AD26810430860FFE704980078D2
:103E9000000700280BD5FFE76D4908680722D2020A
:103EA0009043049A1269D20010430860FFE700F0C3
:103EB0004DF867490968C9B20A091049895CC840C8
:103EC000124908600E480068FFF78AFC014601A805
:103ED00001700078002804D0FFE7019805A9087058
:103EE00003E005A900200870FFE705A8007806B0E8
:103EF00080BDC0460020024089130000688300088E
:103F00000C000020014800687047C04600000020F7
:103F100080B5FFF7F7FF4E490968072212021140EA
:103F20000A0A0949895CC84080BDC04680B5FFF7D0
:103F3000E9FF474909680722D2021140CA0A02492B
:103F4000895CC84080BDC0467883000880B588B0D1
:103F50003F480068079007980C21084001900C2802
:103F600066D80198810001A0405887462F4000087C
:103F7000314000083140000831400008A13F0008EE
:103F8000314000083140000831400008BB3F0008C4
:103F9000314000083140000831400008C13F0008AE
:103FA0002D480068C006002803D5FFE72C48029082
:103FB00002E02A480290FFE746E02A48029043E0E8
:103FC00007980F2189040840810C2248405C069024
:103FD0000798032189050840800D401C05901C4866
:103FE0000068C003002808D5FFE706991D4848432C
:103FF0000599FCF769FA049016E017480068C006B6
:10400000002808D5FFE70699154848430599FCF7AD
:104010005BFA049007E00699104848430599FCF7BD
:1040200053FA0490FFE7FFE7049802900CE0FFE7E3
:104030000D48006880B2400B03900398411C01209A
:104040008840C0030290FFE7029808B080BDC046D8
:104050000C10024080830008001002400024F4008D
:1040600000093D0000127A000410024010B58AB029
:1040700008900898002805D1FFE709A901200870D9
:1040800000F015FCFD4801680C2211400491006805
:10409000012109040840039008980078C00700280F
:1040A00000D18DE0049808280AD0FFE704980C2876
:1040B00019D1FFE7039801210904884213D1FFE7D2
:1040C000EF480068012149040840400C002809D04D
:1040D000FFE708984068002804D1FFE709A90120FC
:1040E0000870E4E36BE0FFE70898406801210904E9
:1040F000884207D1FFE7E249086801221204104311
:10410000086021E0089840680521090488420BD125
:10411000FFE7DB4908680122930418430860086838
:104120001204104308600EE0D54908680122130408
:104130009843086008681840029002980868920442
:1041400090430860FFE7FFE7FFE708984068002812
:104150001AD0FFE7FFF716FB0790FFE7C848006893
:10416000012149040840400C00280CD1FFE7FFF76B
:1041700009FB0799401A652804D3FFE709A9032022
:10418000087094E3EAE719E0FFF7FCFA0790FFE70D
:10419000BB480068012149040840400C00280CD0AD
:1041A000FFE7FFF7EFFA0799401A652804D3FFE706
:1041B00009A9032008707AE3EAE7FFE7FFE7FFE7D2
:1041C000089800788007002800D4A8E00898C06804
:1041D000069006A800788006002809D5FFE7A84ABF
:1041E0001068202108431060069888430690FFE776
:1041F0000498042808D0FFE704980C2841D1FFE771
:10420000039800283DD1FFE79D480068042108403D
:104210008008002808D0FFE70698002804D1FFE7AF
:1042200009A90120087042E3964908681F2212027A
:104230009043089A12691202104308609049086876
:1042400009229043069A10430860FFE7FFF77EFEBD
:104250008A490968C9B20A098B49895CC8408B49F7
:1042600008608B480068FFF7BBFA014605A801709B
:104270000078002804D0FFE7059809A9087016E324
:104280004CE0069800282AD0FFE77D4908680922FB
:104290009043069A10430860FFF774FA0790FFE70F
:1042A0007748006804210840800800280CD1FFE707
:1042B000FFF768FA0799401A032804D3FFE709A912
:1042C00003200870F3E2EBE76E4908681F22120230
:1042D0009043089A12691202104308601DE0684971
:1042E0000868012290430860FFF74CFA0790FFE747
:1042F0006348006804210840800800280CD0FFE7CC
:10430000FFF740FA0799401A032804D3FFE709A9E9
:1043100003200870CBE2EBE7FFE7FFE7FFE7089831
:104320000078C006002800D4A1E00498002845D1F8
:10433000FFE753480068012149020840400A00286D
:1043400009D0FFE70898C069002804D1FFE709A950
:1043500001200870ABE24B490868072252039043E2
:10436000089A526A104308600868FF2212069043B8
:10437000089A126A1206801808600898406A400B72
:10438000411C01208840C0033C490968C9B20A09A0
:104390003D49895CC8403D4908603D480068FFF7D9
:1043A0001FFA014605A801700078002804D0FFE735
:1043B000059809A908707AE2FFE757E00898C069F4
:1043C000002832D0FFE72E4908680122120210436C
:1043D0000860FFF7D7F90790FFE729480068012137
:1043E00049020840400A00280CD1FFE7FFF7CAF94C
:1043F0000799401A032804D3FFE709A9032008708E
:1044000055E2EAE71F490868072252039043089AD9
:10441000526A104308600868FF2212069043089A07
:10442000126A1206801808601FE015490868012208
:10443000120290430860FFF7A5F90790FFE71048C4
:104440000068012149020840400A00280CD0FFE71B
:10445000FFF798F90799401A032804D3FFE709A941
:104460000320087023E2EAE7FFE7FFE7FFE7089889
:104470000078000700284FD50CE0C0460C10024021
:104480000010024004100240688300080000002071
:104490000C0000200898406900281ED0FFE7FD4965
:1044A0000868012210430860FFF76CF90790FFE7E6
:1044B000F848006802210840400800280CD1FFE7B6
:1044C000FFF760F90799401A032804D3FFE709A909
:1044D00003200870EBE1EBE71DE0F94908680122D1
:1044E00090430860FFF74EF90790FFE7F448006833
:1044F00002210840400800280CD0FFE7FFF742F9EE
:104500000799401A032804D3FFE709A9032008707C
:10451000CDE1EBE7FFE7FFE70898007840070028C8
:1045200000D4BBE001A900200870E6480068C00084
:10453000002809D4FFE7E34A116801200307194363
:10454000116001A90870FFE7DF480068C005002876
:104550001DD4FFE7DC4908680122120210430860FD
:10456000FFF710F90790FFE7D7480068C00500285B
:104570000CD4FFE7FFF706F90799401A652804D322
:10458000FFE709A90320087091E1EDE7FFE7FFE7E6
:104590000898806801210902884207D1FFE7C849CD
:1045A000086801221202104308602EE00898806813
:1045B00000280BD1FFE7C249086801221302984383
:1045C000086008689202904308601DE008988068BF
:1045D0000521090288420BD1FFE7B9490868012289
:1045E00093021843086008681202104308600AE04A
:1045F000B3490868012213029843086008689202D0
:1046000090430860FFE7FFE7FFE7FFE7089880684F
:1046100000281BD0FFE7FFF7B5F80790FFE7A84891
:104620000068012149020840400A00280DD1FFE737
:10463000FFF7A8F80799401AA449884204D3FFE776
:1046400009A90320087032E1E9E71AE0FFF79AF8B8
:104650000790FFE79A480068012149020840400A94
:1046600000280DD0FFE7FFF78DF80799401A97490A
:10467000884204D3FFE709A90320087017E1E9E79E
:10468000FFE701A80078012807D1FFE78D490868F6
:104690000122120790430860FFE7FFE708980078BF
:1046A0008006002854D5FFE708988069002829D0A3
:1046B000FFE7FFE786490868012210430860E149E7
:1046C0000868104308608349086852031043086073
:1046D000FFE7FFF757F80790FFE77D4800680221E2
:1046E0000840400800280CD1FFE7FFF74BF8079976
:1046F000401A032804D3FFE709A903200870D6E075
:10470000EBE724E0FFE77249086801229043086064
:1047100070490868520390430860FFE7FFF732F8DA
:104720000790FFE76A480068022108404008002817
:104730000CD0FFE7FFF726F80799401A032804D3A7
:10474000FFE709A903200870B1E0EBE7FFE7FFE707
:104750000898806A002800D1A5E004980C2872D03F
:10476000FFE70898806A02284CD1FFE753490868A0
:104770000122120690430860FFF704F80790FFE754
:104780004E480068012149060840400E00280CD020
:10479000FFE7FEF7F7FF0799401A032804D3FFE766
:1047A00009A90320087082E0EAE743490868FD226E
:1047B00012049043089BDA6A1C6B22435B6B1A431A
:1047C000104308603D490868012212061043086042
:1047D000FEF7D8FF0790FFE7384800680121490637
:1047E0000840400E00280CD1FFE7FEF7CBFF0799E9
:1047F000401A032804D3FFE709A90320087056E0F4
:10480000EAE71FE02D49086801221206904308607C
:10481000FEF7B8FF0790FFE7284800680121490626
:104820000840400E00280CD0FFE7FEF7ABFF0799C9
:10483000401A032804D3FFE709A90320087036E0D3
:10484000EAE7FFE72EE00898806A012804D1FFE735
:1048500009A9012008702AE017480068039003980E
:104860000121090408400899C96A884214D1FFE768
:1048700003980F21890408400899096B88420BD1DD
:10488000FFE703980321890508400899496B88428E
:1048900006D001E05010024009A90120087006E08E
:1048A000FFE7FFE7FFE709A900200870FFE709A875
:1048B00000780AB010BDC0460C1002400010024043
:1048C0005010024038100240007000408913000070
:1048D000081002402000014070B584B00290029898
:1048E000002804D1FFE703A90120087072E00298B4
:1048F000406A00280DD1FFE70298406841218900F5
:10490000884201D1FFE703E002990020C861FFE778
:1049100005E002990020086102994861FFE70299C9
:104920000020886202985121405C002808D1FFE7EE
:104930000299502200208854029800F04FF8FFE7B7
:10494000029851230226C654029801680868402242
:1049500090430860029A0192506841218900084002
:1049600091682124A40221404018D5680121CC027D
:104970002540401915693540401955690D404019C9
:1049800095694E0235404019D569382635404019A1
:10499000156A802635402843956A4E0335402843E2
:1049A00012681060029A9069000C04252840556A2C
:1049B0001026354040191268506002980268D0698C
:1049C000A043D061029A00205065029AD15403A9F5
:1049D0000870FFE703A8007804B070BD80B588B008
:1049E000079000200690059004900390029007988D
:1049F00000681349884220D1FFE712490868012264
:104A0000120310430860FFE70F48026801210A43C0
:104A100002600068084001900198FFE7E0200290E2
:104A200002200390002004900321059106900520A8
:104A3000000702A9FEF7EEFCFFE708B080BDC04604
:104A400000300140341002402C10024010B588B0F4
:104A50000690059104A8028003930698C068002878
:104A600001D0FFE7FFE7FEF78DFE0290049801A951
:104A7000088006985121405C012804D0FFE707A96F
:104A80000220087042E10598002805D0FFE704A83D
:104A90000088002804D1FFE707A90120087035E14C
:104AA000FFE706985021405C012804D1FFE707A9E1
:104AB000022008702AE10699502201208854FFE75D
:104AC000FFE7069951220320885406990020486583
:104AD0000599069A11630499069A91860499069A93
:104AE000D18606998863069988870699C8870699AA
:104AF000486406990864069880680121C9038842C1
:104B00000ED1FFE7069801680868402290430860CC
:104B10000698016808680122920310430860FFE7C5
:104B200006980068006840210840402807D0FFE749
:104B3000069801680868402210430860FFE706985D
:104B4000C0680121C902884255D1FFE70698406834
:104B5000002805D0FFE701A8008801280ED1FFE753
:104B60000699086B00880968C8600699086B801C64
:104B700008630699C88E401EC886FFE7FFE70698BF
:104B8000C08E002836D0FFE706980068806880074E
:104B900000280ED5FFE70699086B00880968C860F1
:104BA0000699086B801C08630699C88E401EC8864B
:104BB0001FE0FEF7E7FD0299401A0399884205D3EA
:104BC000FFE70398401C002804D1FFE70398002862
:104BD0000ED1FFE70699512201208854FFE706997C
:104BE000502200208854FFE707A9032008708DE0B9
:104BF000FFE7C4E754E006984068002805D0FFE7C7
:104C000001A8008801280ED1FFE70699086B0078FB
:104C1000096808730699086B401C08630699C88EDA
:104C2000401EC886FFE7FFE70698C08E002836D0F2
:104C3000FFE7069800688068800700280ED5FFE728
:104C40000699086B0078096808730699086B401C80
:104C500008630699C88E401EC8861FE0FEF792FDC5
:104C60000299401A0399884205D3FFE70398401C34
:104C7000002804D1FFE7039800280ED1FFE706992A
:104C8000512201208854FFE70699502200208854C1
:104C9000FFE707A90320087038E0FFE7C4E7FFE754
:104CA00006980399029A00F0EBFF002804D0FFE772
:104CB000069920204865FFE70698806800280ED1F5
:104CC000FFE7FFE70020009006980068C0680090AA
:104CD00006980068806800900098FFE7FFE7069953
:104CE000512201208854FFE7069950220020885461
:104CF000FFE70698406D002804D0FFE707A90120D0
:104D0000087003E007A900200870FFE707A80078F3
:104D100008B010BD80B582B00190019801F02CFA66
:104D200002B080BD85B003900291FFE7039838215F
:104D3000405C012804D1FFE704A90220087053E079
:104D40000399382201208854FFE7FFE703993922AD
:104D50000220885403980068406801900398006816
:104D60008068009001987021884301900298016842
:104D700001980843019001980399096848600398D5
:104D8000006801218907884212D0FFE70398006874
:104D9000784988420CD0FFE703980068764988423A
:104DA00006D0FFE703980068744988420ED1FFE7F8
:104DB0000098802188430090029841680098084339
:104DC00000900098039909688860FFE703993922E9
:104DD00001208854FFE70399382200208854FFE718
:104DE00004A900200870FFE704A8007805B0704708
:104DF00080B582B000900098002804D1FFE701A997
:104E00000120087030E000983921405C002808D16A
:104E1000FFE70099382200208854009800F028F815
:104E2000FFE70099392202208854009901C901F056
:104E300035FA00993E2201208854FFE700993A2272
:104E40000120885400993B22885400993C228854C0
:104E500000993D228854FFE70099392201208854A7
:104E600001A900200870FFE701A8007802B080BD0A
:104E700080B584B0039003980068D34988420FD16D
:104E8000FFE71349086810221043086011200290C0
:104E900001210022FEF7F5FC0298FEF7E7FC15E081
:104EA00003980068C94988420FD1FFE7084908689C
:104EB0002022104308601220019000221146FEF7C4
:104EC000E0FC0198FEF7D2FCFFE7FFE704B080BDED
:104ED0003810024083B0019001983921405C0128CC
:104EE00004D0FFE702A9012008703EE001993922B1
:104EF0000220885401980268D06801210843D060DC
:104F0000019800688907884212D0FFE7019800687D
:104F1000184988420CD0FFE701980068164988427A
:104F200006D0FFE7019800681449884212D1FFE7D4
:104F300001980068806807210840009000980628C2
:104F400007D0FFE701980168086801221043086054
:104F5000FFE706E001980168086801221043086035
:104F6000FFE702A900200870FFE702A8007803B05D
:104F70007047C04600040040000801400014014092
:104F800081B0009001B0704780B584B00390039861
:104F90000068C0680290039800680069019001A849
:104FA00000788007002825D5FFE702A80078800751
:104FB00000281ED5FFE7039801680220C04308615E
:104FC000039901200876039800688069800700280B
:104FD00004D0FFE70398FFF7D3FF06E0039800F043
:104FE000BAF8039800F0BBF8FFE7039900200876B1
:104FF000FFE7FFE701A800784007002826D5FFE774
:1050000002A80078400700281FD5FFE70398016831
:105010000420C043086103990220087603980068C1
:1050200080698005800F002804D0FFE70398FFF710
:10503000A7FF06E0039800F08EF8039800F08FF8C1
:10504000FFE7039900200876FFE7FFE701A8007853
:105050000007002825D5FFE702A8007800070028F0
:105060001ED5FFE7039801680820C0430861039933
:105070000420087603980068C0698007002804D0DF
:10508000FFE70398FFF77CFF06E0039800F063F862
:10509000039800F064F8FFE7039900200876FFE723
:1050A000FFE701A80078C006002826D5FFE702A880
:1050B0000078C00600281FD5FFE70398016810207C
:1050C000C043086103990820087603980068C06906
:1050D0008005800F002804D0FFE70398FFF750FFFA
:1050E00006E0039800F037F8039800F038F8FFE77F
:1050F000039900200876FFE7FFE701A80078C007C2
:10510000002810D0FFE702A80078C007002809D0C7
:10511000FFE7039801680120C0430861039800F08D
:1051200023F8FFE7FFE701A800784006002810D524
:10513000FFE702A800784006002809D5FFE703989A
:1051400001684020C0430861039800F045F8FFE77C
:10515000FFE704B080BD81B0009001B0704781B01E
:10516000009001B07047000080B584B003900398B0
:1051700000681549884204D1FFE7164802F005FE91
:105180001FE0039800681149884219D1FFE71049D0
:1051900002910878401C08700E48019002F002FE4F
:1051A000019802F0D8FD02980078052807DBFFE798
:1051B000074900200870074802F0DAFDFFE7FFE723
:1051C000FFE704B080BDC04600100040001400405E
:1051D0000C0200205008002081B0009001B0704700
:1051E00082B001906846018002B0704781B00090A3
:1051F00001B0704781B0009001B0704780B5A8B091
:105200000F900F980068C0690E900F9800680068B2
:105210000D900F98006880680C900E98F349084034
:105220000B900B98002817D1FFE70EA80078800696
:10523000002810D5FFE70DA80078800600280AD5C1
:10524000FFE70F98806E002804D0FFE70F98816E6B
:105250008847FFE773E2FFE70B98002800D1FBE0E7
:105260000CA80078C007002805D1FFE70D98E04999
:10527000084200D1F0E00EA80078C007002810D046
:10528000FFE70DA84078C00700280AD0FFE70F9875
:105290000068012303620F998422885818438850BC
:1052A000FFE70EA800788007002811D5FFE70CA8BB
:1052B0000078C00700280BD0FFE70F980168022094
:1052C00008620F9984228858042318438850FFE706
:1052D0000EA800784007002811D5FFE70CA8007839
:1052E000C00700280BD0FFE70F9801680420086270
:1052F0000F9984228858022318438850FFE70EA88C
:1053000000780007002816D5FFE70DA80078800672
:10531000002806D4FFE70CA80078C00700280AD0B0
:10532000FFE70F980068082303620F9984228858CA
:1053300018438850FFE70EA840780007002812D5D0
:10534000FFE70DA8C078400700280CD5FFE70F98AD
:1053500001680120C00208620F9984228858202326
:1053600018438850FFE70F9884214058002872D0D6
:10537000FFE70EA800788006002810D5FFE70DA8EB
:105380000078800600280AD5FFE70F98806E002875
:1053900004D0FFE70F98816E8847FFE7FFE70F987B
:1053A000842140580A900F98006880684021084086
:1053B000402806D0FFE70AA800782821084241D0FB
:1053C000FFE70F9801F03DF90F98006880684006EC
:1053D000002832D5FFE7FFE7EFF31080179017980A
:1053E000099001202790279880F310880F98016872
:1053F000886840229043886009982690269880F318
:105400001088FFE70F98406F002811D0FFE70F9832
:10541000416FCC4888630F98406FFDF71AFE002853
:1054200005D0FFE70F98406F816B8847FFE703E0E7
:105430000F98FFF7DFFEFFE703E00F98FFF7DAFEB4
:10544000FFE707E00F98FFF7D5FE0F9984220020B1
:105450008850FFE7FFE772E10F98006E012800D047
:1054600032E10EA80078C006002800D42CE10DA877
:105470000078C006002800D426E10F9801681020AB
:1054800008620F98006880684006002800D4B1E0E8
:105490000F98406F0068416808A8018000880028C4
:1054A00000D187E008A800880F995822895A8842BD
:1054B00000DB7FE008980F995A2288520F98406FBE
:1054C000006800688006002867D4FFE7FFE7EFF375
:1054D000108016901698079001222592259880F347
:1054E00010880F98016808681202904308600798B6
:1054F0002490249880F31088FFE7FFE7EFF31080F3
:1055000015901598069001222392239880F3108815
:105510000F980168886890438860069822902298C6
:1055200080F31088FFE7FFE7EFF3108014901498E2
:10553000059001202190219880F310880F98016830
:10554000886840229043886005982090209880F3D6
:105550001088FFE70F998022202088500F990020A3
:105560000866FFE7EFF31080139013980490012072
:105570001F901F9880F310880F9801680868102208
:105580009043086004981E901E9880F31088FFE7EF
:105590000F98406FFDF720FDFFE70F990220486646
:1055A0000F985821415A5A22825A891A89B2FFF714
:1055B00017FE1AE008A800880F995822895A8842D5
:1055C00012D1FFE70F98406F00680068800600283E
:1055D00009D5FFE70F99022048660F985821415AD4
:1055E000FFF7FEFDFFE7FFE7FFE7A8E00F08000079
:1055F000200100040F9A5820105A5A21525A801A3A
:1056000003AA10800F98405A00285CD0FFE703A837
:105610000088002857D0FFE7FFE7EFF310801290D3
:105620001298029001201D901D9880F310880F9809
:1056300001680868092252019043086002981C9092
:105640001C9880F31088FFE7FFE7EFF310801190BC
:105650001198019001221B921B9880F310880F98DB
:10566000016888689043886001981A901A9880F3BE
:105670001088FFE70F998022202088500F99002082
:1056800008660F998866FFE7EFF310801090109876
:10569000009001201990199880F310880F980168E4
:1056A000086810229043086000981890189880F3BA
:1056B0001088FFE70F99022048660F9803A9098810
:1056C000FFF78EFDFFE73AE00EA88078C0060028BD
:1056D0000FD5FFE70CA880784006002809D5FFE722
:1056E0000F9801680120000508620F98FFF77EFD02
:1056F00025E00EA800780006002810D5FFE70DA8C9
:105700000078000600280AD5FFE70F98C06E002831
:1057100004D0FFE70F98C16E8847FFE70FE00EA89F
:105720000078400600280AD5FFE70DA8007840065B
:10573000002804D5FFE70F9800F0DBFFFFE728B053
:1057400080BDC0462566000880B582B000900098F4
:10575000002804D1FFE701A90120087048E0009863
:105760008069002801D0FFE700E0FFE70098C06FE4
:10577000002808D1FFE7009978220020885400987B
:1057800000F03AF8FFE700992420C8670098016804
:1057900008680122904308600098406A002804D0FD
:1057A000FFE7009800F0E2FDFFE7009800F0C6FF79
:1057B000012804D1FFE701A90120087018E0009832
:1057C000016848680922D202904348600098016845
:1057D00088682A229043886000980168086801223E
:1057E00010430860009800F06FFE01A90870FFE701
:1057F00001A8007802B080BD80B58AB00990002071
:105800000890079006900590049009980068184940
:1058100088422BD1FFE71749086801225204104340
:105820000860FFE7C248026801210A43026000687D
:10583000084003900398FFE70C2004900220059095
:105840000020019006900320079004200890052076
:10585000000704A9FDF7DEFD019A1C200290114605
:10586000FEF70FF80298FEF701F8FFE70AB080BDD7
:10587000004400403810024088B00390029101A813
:1058800002800398C06F202867D1FFE702980028A4
:1058900005D0FFE701A80088002804D1FFE704A98C
:1058A000012008705DE003988068012109038842A7
:1058B00010D1FFE70398006900280BD1FFE702A889
:1058C0000078C007002804D0FFE704A90120087071
:1058D00047E0FFE702980399C864019803995022B2
:1058E0008852019803995222885203990020C86671
:1058F00003998422885003992120C86703988068FF
:1059000001210903884209D1FFE7039800690028B3
:1059100004D1FFE703991648C86603E003991348CA
:10592000C866FFE7FFE7EFF3108005900598009049
:1059300001200790079880F3108803980168086891
:1059400080221043086000980690069880F3108823
:10595000FFE704A90020087003E004A902200870F2
:10596000FFE704A8007808B07047C046ED6C000857
:10597000416C000881B0009005480078012804D1EE
:10598000FFE7034900200870FFE701B07047C046F9
:1059900018020020FFE7FEE710B584B00021009157
:1059A0000391029119480190194A0260C163031DD5
:1059B0000122940744608160052484630261C16010
:1059C000197759778162FF23C23343622C23C25473
:1059D00004224261016381614163C161FDF7B6F850
:1059E000002803D0FFE7FCF789FCFFE701200290C5
:1059F00000030390054802A9FCF728FF002803D004
:105A0000FFE7FCF77BFCFFE704B010BD4806002071
:105A10000024014080B582B0FFE70A4802680121F6
:105A20000A4302600068084001900198FFE70920DE
:105A3000009000221146FDF724FF0098FDF716FFA5
:105A400002B080BD3010024010B58EB000200D9025
:105A50000C900B900A900990FFE7354802680421EA
:105A60000A4302600068084008900898FFE7FFE7D3
:105A70002F48026801210A4302600068084007902D
:105A80000798FFE7FFE72A48026802210A430260FD
:105A90000068084006900698FFE726480190802499
:105AA000002203922146FDF756FE039A22480490F5
:105AB0000821FDF750FE0498402101220292FDF7D3
:105AC0004AFE01980299039A032309930A920B91C3
:105AD00009A90591FDF79EFC0298039A05991023E8
